{
  "contractName": "GenerateCars",
  "abi": [
    {
      "constant": false,
      "inputs": [],
      "name": "generate",
      "outputs": [
        {
          "name": "",
          "type": "uint256"
        }
      ],
      "payable": false,
      "stateMutability": "nonpayable",
      "type": "function"
    },
    {
      "constant": true,
      "inputs": [],
      "name": "getCars",
      "outputs": [
        {
          "name": "",
          "type": "uint256"
        }
      ],
      "payable": false,
      "stateMutability": "view",
      "type": "function"
    }
  ],
  "bytecode": "0x608060405234801561001057600080fd5b5060ee8061001f6000396000f3006080604052600436106049576000357c0100000000000000000000000000000000000000000000000000000000900463ffffffff16806317c3928614604e5780632a1bbc34146076575b600080fd5b348015605957600080fd5b506060609e565b6040518082815260200191505060405180910390f35b348015608157600080fd5b50608860a7565b6040518082815260200191505060405180910390f35b60008054905090565b600080600081548092919060010191905055506000549050905600a165627a7a72305820f3af0f7d5b30aff5ff1272c76b8e66ac3f7dca655bbcc382ea5981335704a6e80029",
  "source": "pragma solidity ^0.4.24;\n\n\ncontract GenerateCars{\n\n    //address[16] public generaters;  // was adopters\n    uint cars;\n\n  // make an adoption\n    function generate() public returns (uint) {\n        //require(num >= 0);\n\n        //generaters[petId] = msg.sender;\n        cars ++;\n\n        return cars;\n    }\n\n    function getCars() public view returns (uint) {\n        return cars;\n    }\n\n}\n",
  "sourcePath": "/home/aiden1193/Desktop/pet-shop/contracts/GenerateCars.sol",
  "compiler": {
    "name": "solc",
    "version": "0.4.24+commit.e67f0147.Emscripten.clang"
  },
  "schemaVersion": "2.0.1",
  "updatedAt": "2018-10-21T17:13:39.531Z"
}